:0400000080312528FE
:100008007E1480310B1F09280A2823282100911EFD
:100018000E280F2823288C3106248031003A031932
:100028001628172823288C319E248031F400740860
:10003800F7002000911277088E31EE2680317E106D
:10004800090080312728F501F601F701F8015B3036
:1000580084000030850010308C31282480317E10D7
:1000680020008531162D2000C10000308C312E244F
:1000780080312000CA01C601C701C801C9016B2B24
:10008800CA01CA0A1030BD003D08C6001030BD00C4
:100098003D08C8001030BD003D08C7001030BD0045
:1000A8003D08C9000B2C0430BD003D08CA000230D1
:1000B800BD003D08C6000230BD003D08C800023042
:1000C800BD003D08C7000230BD003D08C9000B2C2B
:1000D8000230BD003D08CA000230BD003D08C60020
:1000E8000230BD003D08C8000430BD003D08C7000F
:1000F8000430BD003D08C9000B2C0330BD003D088D
:10010800CA000230BD003D08C6000230BD003D08EF
:10011800C8000230BD003D08C7000230BD003D08E0
:10012800C9000B2C0230BD003D08CA000230BD00DA
:100138003D08C6000230BD003D08C8000230BD00C1
:100148003D08C7000230BD003D08C9000B2CCA019C
:10015800CA0A0830BD003D08C6000830BD003D0889
:10016800C8001030BD003D08C7001030BD003D0874
:10017800C9000B2CCA01CA0A0830BD003D08C600D8
:100188000830BD003D08C8000830BD003D08C70064
:100198000830BD003D08C9000B2CCA01CA0A083046
:1001A800BD003D08C6000830BD003D08C800043049
:1001B800BD003D08C7000430BD003D08C9000B2C38
:1001C800CA01CA0A0430BD003D08C6000430BD009B
:1001D8003D08C8000430BD003D08C7000430BD001C
:1001E8003D08C9000B2CCA01CA0A0230BD003D08EF
:1001F800C6000230BD003D08C8000430BD003D08FF
:10020800C7000430BD003D08C9000B2CCA01CA0A4A
:100218000230BD003D08C6000230BD003D08C800E0
:100228000230BD003D08C7000230BD003D08C900CE
:100238000B2CCA01CA0AC601C60AC801C80A02307C
:10024800BD003D08C7000230BD003D08C9000B2CA9
:10025800CA01CA0AC601C60AC801C80AC701C70A2C
:10026800C901C90A0B2C0230BD003D08CA00103074
:10027800BD003D08C6001030BD003D08C800103064
:10028800BD003D08C7001030BD003D08C9000B2C5B
:100298000230BD003D08CA000830BD003D08C60058
:1002A8000830BD003D08C8001030BD003D08C7003B
:1002B8001030BD003D08C9000B2C0230BD003D08C0
:1002C800CA000830BD003D08C6000830BD003D0822
:1002D800C8000830BD003D08C7000830BD003D0813
:1002E800C9000B2C0230BD003D08CA000830BD0013
:1002F8003D08C6000830BD003D08C8000430BD00F8
:100308003D08C7000430BD003D08C9000B2C023071
:10031800BD003D08CA000430BD003D08C6000430D9
:10032800BD003D08C8000430BD003D08C7000430CA
:10033800BD003D08C9000B2C0230BD003D08CA00B5
:10034800C601C60AC801C80A0230BD003D08C70078
:100358000230BD003D08C9000B2C0230BD003D082D
:10036800CA00C601C60AC801C80AC701C70AC90126
:10037800C90A0B2C0330BD003D08CA001030BD006F
:100388003D08C6001030BD003D08C8001030BD0053
:100398003D08C7001030BD003D08C9000B2C0330D4
:1003A800BD003D08CA000830BD003D08C600083041
:1003B800BD003D08C8001030BD003D08C700103022
:1003C800BD003D08C9000B2C0330BD003D08CA0024
:1003D8000830BD003D08C6000830BD003D08C80013
:1003E8000830BD003D08C7000830BD003D08C90001
:1003F8000B2C0330BD003D08CA000830BD003D0885
:10040800C6000830BD003D08C8000430BD003D08E6
:10041800C7000430BD003D08C9000B2C0330BD00E7
:100428003D08CA000430BD003D08C6000430BD00C8
:100438003D08C8000430BD003D08C7000430BD00B9
:100448003D08C9000B2C0330BD003D08CA0002302E
:10045800BD003D08C6000230BD003D08C80004309C
:10046800BD003D08C7000430BD003D08C9000B2C85
:100478000330BD003D08CA00A4290330BD003D0873
:10048800CA00B5290430BD003D08CA001030BD00BF
:100498003D08C6001030BD003D08C8001030BD0042
:1004A8003D08C7001030BD003D08C9000B2C0430C2
:1004B800BD003D08CA000830BD003D08C600083030
:1004C800BD003D08C8001030BD003D08C700103011
:1004D800BD003D08C9000B2C0430BD003D08CA0012
:1004E8000830BD003D08C6000830BD003D08C80002
:1004F8000830BD003D08C7000830BD003D08C900F0
:100508000B2C0430BD003D08CA000830BD003D0872
:10051800C6000830BD003D08C8000430BD003D08D5
:10052800C7000430BD003D08C9000B2C0430BD00D5
:100538003D08CA000430BD003D08C6000430BD00B7
:100548003D08C8000430BD003D08C7000430BD00A8
:100558003D08C9000B2C0430BD003D08CA0004301A
:10056800BD003D08C6000430BD003D08C80002308B
:10057800BD003D08C7000230BD003D08C9000B2C76
:100588000430BD003D08CA00A4290430BD003D0860
:10059800CA00B5290530BD003D08CA001030BD00AD
:1005A8003D08C6001030BD003D08C8001030BD0031
:1005B8003D08C7001030BD003D08C9000B2C0530B0
:1005C800BD003D08CA000830BD003D08C60008301F
:1005D800BD003D08C8001030BD003D08C700103000
:1005E800BD003D08C9000B2C0530BD003D08CA0000
:1005F8000830BD003D08C6000830BD003D08C800F1
:100608000830BD003D08C7000830BD003D08C900DE
:100618000B2C0530BD003D08CA000830BD003D0860
:10062800C6000830BD003D08C8000430BD003D08C4
:10063800C7000430BD003D08C9000B2C0530BD00C3
:100648003D08CA000430BD003D08C6000430BD00A6
:100658003D08C8000430BD003D08C7000430BD0097
:100668003D08C9000B2C0530BD003D08CA0002300A
:10067800BD003D08C6000230BD003D08C80004307A
:10068800BD003D08C7000430BD003D08C9000B2C63
:100698000530BD003D08CA000230BD003D08C60057
:1006A8000230BD003D08C8000230BD003D08C7004B
:1006B8000230BD003D08C9000B2C0530BD003D08C7
:1006C800CA00A4290530BD003D08CA00B529410863
:1006D800BD00BE013E08003A0319732B0B2C3D08E0
:1006E800733A03194428073A03195728013A03199A
:1006F8006C28033A03198128013A03199628C73A46
:1007080003194428013A0319AB28033A0319BE28F0
:10071800013A0319D128073A0319E428013A0319C1
:10072800F728033A03190A29013A03191D290F3A30
:1007380003192C29013A03193729033A03194C29BB
:10074800013A03196129073A03197629013A03196D
:100758008B29033A03196C28013A031996287F3A22
:100768000319A029013A0319B129033A0319BE292B
:10077800013A0319D329073A0319E829013A031959
:10078800FD29033A0319122A013A0319272A0F3AB5
:1007980003198128013A03193C2A033A0319412A0B
:1007A800013A0319462A073A03195B2A013A031941
:1007B800702A033A0319852A013A03199A2A1F3A1B
:1007C8000319AF2A013A03195728033A0319C42A0F
:1007D800013A0319C92A073A0319CE2A013A03191B
:1007E800E32A033A0319F82A013A03190D2B0F3AA1
:1007F8000319222B013A0319372B033A03194C2BFF
:10080800013A0319612B073A0319662B0B2C0D309B
:100818002000BD00FB30890B0F2CBD0B0F2C0032C4
:1008280020004A08BD00BE013D08A1003E08A20004
:100838004808BF00C0013F08A3004008A4008C314D
:10084800E424803120002208C3002108C2004A089D
:10085800BD00BE013D08A1003E08A2004908BF0036
:10086800C0013F08A3004008A4008C31E424803173
:1008780020002208C5002108C4000230A70000306B
:10088800A8004308A2004208A100C830A300003015
:10089800A4008C31E424803120002208AA00210819
:1008A800A9008E318E26803120002808B100270843
:1008B800B0004608BD003D08B2000230A700003075
:1008C800A8004508A2004408A100C830A3000030D1
:1008D800A4008C31E424803120002208AA002108D9
:1008E800A9008E318E26803120002808B400270800
:1008F800B3004708BE003E08B500B601B60A00308E
:1009080087316A2780310D302000BD00FB30890B0C
:100918008B2CBD0B8B2C003220004A08BD00BE0179
:100928003D08A1003E08A2004908BF00C0013F08D9
:10093800A3004008A4008C31E42480312000220860
:10094800C3002108C2004A08BD00BE013D08A1003D
:100958003E08A2004808BF00C0013F08A3004008A5
:10096800A4008C31E424803120002208C50021082D
:10097800C4000230A7000030A8004308A2004208C3
:10098800A100C830A3000030A4008C31E4248031D9
:1009980020002208AA002108A9008E318E26803165
:1009A80020002808B1002708B0004708BD003D080E
:1009B800B2000230A7000030A8004508A200440891
:1009C800A100C830A3000030A4008C31E424803199
:1009D80020002208AA002108A9008E318E26803125
:1009E80020002808B4002708B3004608BE003E08C7
:1009F800B500B601B60A013087316A2780310D305B
:100A08002000BD00FB30890B072DBD0B072D0032E0
:100A18000D302000BD00FB30890B102DBD0B102DB3
:100A2800003208008C31692485318D31512585319A
:100A380001308C31832485312100911620009112D8
:100A48008B170B173D2F00308C312E2485318D31BB
:100A5800DF2585318C3122248531FE308C314724C5
:100A680085313D2F00308C312E2485318D31AA25DA
:100A780085318C3122248531FE308C3147248531F3
:100A88003D2FFA308C314724853100308C312E24AB
:100A980085318D317C25853103308C315D2485315C
:100AA8003D2F00308C312E24853100308D312825A2
:100AB80085310A308C315D2485313D2F00308C31F1
:100AC8002E24853101308D31282585310B308C312C
:100AD8005D2485313D2F00308C312E2485318E31B7
:100AE8001426853109308C315D2485313D2FFA304B
:100AF8008C314724853100308C312E2485318C315E
:100B0800D124853104308C315D248531FB308C3122
:100B1800472485313D2FFA308C3147248531003008
:100B28008C312E2485318C31BE24853105308C31B1
:100B38005D248531FB308C31472485313D2F0030D1
:100B48008C312E248531D92DD9011030D5000030B3
:100B5800D600392ED901D90A0130D5000030D60087
:100B6800392E0230CB004B08D9000230D5000030B6
:100B7800D600392E0430CB004B08D9000430D500FC
:100B88000030D600392E0830CB004B08D900083089
:100B9800D5000030D600392E1030CB004B08D900D4
:100BA8001030D5000030D600392E01308C31352474
:100BB80085312000CB00CC014C08003A0319E52D03
:100BC800A82D4B08003A0319A82D013A0319AE2D98
:100BD800033A0319B52D063A0319BE2D0C3A031929
:100BE800C72D183A0319D02D203A0319A82D013A18
:100BF8000319AE2D033A0319B52D063A0319BE2D74
:100C08000C3A0319C72DA82DDA011030D70000308F
:100C1800D800682EDA01DA0A0130D7000030D8008F
:100C2800682E0230CB004B08DA000230D7000030C3
:100C3800D800682E0430CB004B08DA000430D70007
:100C48000030D800682E0830CB004B08DA00083096
:100C5800D7000030D800682E1030CB004B08DA00DF
:100C68001030D7000030D800682E03308C3135247E
:100C780085312000CB00CC014C08003A0319452EE1
:100C8800082E4B08003A0319082E013A03190E2EB4
:100C9800033A0319152E063A03191E2E0C3A0319A6
:100CA800272E183A0319302E203A0319082E013A34
:100CB80003190E2E033A0319152E063A03191E2E90
:100CC8000C3A0319272E082E02308C313524853131
:100CD8002000CB00CC014B08A1004C08A20000303A
:100CE8008C31352485312000CD00CE014D08A3007C
:100CF8004E08A4008C31E424853120002208D40059
:100D08002108D3005408A2005308A1005608A400E3
:100D18005508A3008C31E424853120002208D00036
:100D28002108CF0004308C31352485312000CB00D8
:100D3800CC014B08A1004C08A20000308C313524AE
:100D480085312000CD00CE014D08A3004E08A40037
:100D58008C31E424853120002208D4002108D300F6
:100D68005408A2005308A1005808A4005708A3007B
:100D78008C31E424853120002208D2002108D100DA
:100D88005008B1004F08B0005908CB004B08B2001A
:100D98005208B4005108B3005A08CC004C08B500FA
:100DA800B601B60A003087316A2785311430200031
:100DB800CB007930890BDE2ECB0BDE2E00322000E3
:100DC8005208B1005108B0005A08CB004B08B200D5
:100DD8005008B4004F08B3005908CC004C08B500BF
:100DE800B601B60A013087316A27853107302000FD
:100DF800CB007D30890BFE2ECB0BFE2E0130200060
:100E0800CB004B08DF070B305F06031D0C2F0D2F9F
:100E18003D2F8B31F9238531003A031D142F152FEF
:100E28003D2F2000DF018C310B2485313D2F8B3184
:100E3800FF238531003A0319222F232F3D2F8B31B1
:100E4800FF23853180313720853101302000CB00E8
:100E58004B08DF070B305F06031D332F342F3D2F60
:100E68008B31F9238531003A031D3B2F3C2F3D2F51
:100E7800152F8B31FC2385312000CB00CC014C0889
:100E8800003A0319482F3D2F4B08023A0319A32DA6
:100E9800013A0319452D073A03197B2D013A031925
:100EA8008F2D033A0319272D013A0319362D0F3ACE
:100EB80003191B2F013A03196F2D033A0319552DF6
:100EC800013A0319622D3D2F803125282000BC00EE
:100ED80000308C318324873120003C088C31762403
:100EE8008731200032088E315026873120003C0897
:100EF800031D7F2F802F852F01308731FF278731F2
:100F0800892F05308731FF2787311A302000B70035
:100F1800F830890B8D2FB70B8D2F00002000B801FA
:100F2800B901B02F8B31F6238731003A03199D2F71
:100F38009E2F9F2FBA2F22008E14A630890BA22F26
:100F4800003222008E10A630890BA82F0032013003
:100F58002000B8070030B93D31083902031DB62F0B
:100F680030083802031CB92FBA2F962F00308C3165
:100F780083248731200035088E31502687312000A0
:100F8800BA01BB01E12F8B31F6238731003A0319EF
:100F9800CE2FCF2FD02FEB2F22008E14A630890B07
:100FA800D32F003222008E10A630890BD92F0032A1
:100FB80001302000BA070030BB3D34083B02031D56
:100FC800E72F33083A02031CEA2FEB2FC72F013013
:100FD8008C318324873120003C08031DF42FF52F22
:100FE800FA2F02308731FF278731FE2F04308731EF
:080FF800FF2787310800080003
:1017EC0020006108080020006A0808002000620838
:1017FC00080020006008080016302100970008003F
:10180C002000110E890C01390800F9308C31472465
:10181C008C31080020002108DC002008DB000800C7
:10182C0020002108F6002008F500080020002108FF
:10183C00DE002008DD00080001302000A000200898
:10184C00E2000800640080010131890B292C00346E
:10185C002000A1002108A0002008E10008002000C1
:10186C00A0002008633E8600870101080800F000F4
:10187C002000111E422C432C3E2C700823009A0091
:10188C0008002000A000111E4C2C4D2C492C2008C7
:10189C0023009A000800F00070080319562C572CEE
:1018AC005A2C22000E115C2C22000E150800200070
:1018BC00A10062082106031D642C652C682C8C3158
:1018CC0022248C3108008C31AD248C318C31902445
:1018DC008C318C3102248C318D3104258C310800F3
:1018EC002000A0002008031D7C2C7D2C802C2200C5
:1018FC000E14822C22000E1008002000A0002008DC
:10190C000319892C8A2C8D2C22000E118F2C22006D
:10191C000E150800783021009900980127009B01D2
:10192C002200960121001A1F9C2C9D2C982C08003B
:10193C002000911EA22CA32C9E2CF80123009D1C90
:10194C00A82CA92CAB2C1D121D161908080022005E
:10195C008C018E0121008C0120308E0023008E0121
:10196C008C0124008C012100951722009D01080098
:10197C0040302000B0000630B1000430BD003D08FE
:10198C00B2000030B300B400B501B60101308731AC
:10199C006A278C31080040302000B0000630B100BE
:1019AC000430BD003D08B2000030B300B400B501F6
:1019BC00B601003087316A278C3108002000A50160
:1019CC00A601211CEA2CEB2CEF2C2308A5072408DC
:1019DC00A63D0130A335A40D890BF02C0130A236A5
:1019EC00A10C890BF52C21082204031DFE2CFF2CC5
:1019FC00E72C2608A2002508A100080008302300C7
:101A0C009F0090309D0024309E0067309B009C010D
:101A1C0000302000A0000030A1008C3116248D3144
:101A2C0000302000A0000030A1008C311C248D312E
:101A3C0000302000A0000030A1008C3110248D312A
:101A4C00F80108002000A40000308C3183248D3173
:101A5C00200024088C3176248D3104308E315026B0
:101A6C008D31442D22008E14C8300032890B3B2D51
:101A7C0022008E10C8300032890B412D8B31F62399
:101A8C008D31003A03194B2D4C2D382D01308C31F2
:101A9C0083248D3108002000E001E1010130A00019
:101AAC002008E200A101A20120002108633E86006B
:101ABC00870181010130A1070030A23D2208803A44
:101ACC00A00080302002031D6D2D05302102031C67
:101ADC00702D712D5A2D63302000A0002008E800D5
:101AEC00E9010130A0002008EA00080000308C3128
:101AFC0083248D3100308C312E248D3101308C318A
:101B0C0076248D3102308E3150268D31992D220064
:101B1C008E14C8300032890B902D22008E10C830E4
:101B2C000032890B962D8B31F6238D31003A031937
:101B3C00A02DA12D8D2D00308C312E248D31013016
:101B4C008C3183248D31080022008E10413020000E
:101B5C00BD00EE30890BB02DBD0BB02D0000063052
:101B6C002000BD003D08C0004008BD00BE013D087E
:101B7C00A1003E08A2002030A3000330A4008C3149
:101B8C00E4248D3120002208B1002108B00004307B
:101B9C00BF003F08B2000030B300B400B501B6017D
:101BAC00003087316A278D3101308C312E248D31F4
:101BBC00080022008E1041302000BD00EE30890B51
:101BCC00E52DBD0BE52D00000C302000BD003D08BF
:101BDC00C0004008BD00BE013D08A1003E08A200A7
:101BEC002030A3000330A4008C31E4248D3120007C
:101BFC002208B1002108B0000430BF003F08B20039
:101C0C000030B300B400B501B601013087316A274A
:101C1C008D3101308C312E248D31080001308C3106
:101C2C0076248E3101308E3150268E3100308C313D
:101C3C0083248E313F2E22008E1403302000A50009
:101C4C008A30A4005530890B292EA40B292EA50B04
:101C5C00292E003222008E1003302000A5008A307D
:101C6C00A4005530890B382EA40B382EA50B382E1A
:101C7C0000328B31F6238E31003A0319462E472E53
:101C8C00212E00308C312E248E3101308C31832466
:101C9C008E3108002000A300712E22008C128E11B0
:101CAC000C128D2E22008C168E110C128D2E2200F1
:101CBC008C128E150C128D2E22008C168E150C1279
:101CCC008D2E22008C168E150C168D2E01308C311B
:101CDC0083248E318D2E2308A100A2012208003A04
:101CEC000319792E6C2E2108003A03196C2E013A37
:101CFC000319532E033A0319582E063A03195D2E75
:101D0C000C3A0319622E183A0319672E6C2E080030
:101D1C002000AD01A81F932E942E9B2EA709A80975
:101D2C00A70A0319A80AAD01AD0AAA1F9E2E9F2E61
:101D3C00A82EA909AA09A90A0319AA0A0130AB00FD
:101D4C002B08AD06AE01AF01270828040319AF2EEE
:101D5C00B02EDF2EAC01AC0ABC2E0130A735A80D7D
:101D6C00890BB42E0130AB002B08AC07A81FBF2E7B
:101D7C00C02EB32E0130AE35AF0D890BC12E280805
:101D8C002A02031DCB2E27082902031CCE2ECF2E90
:101D9C00D42E2708A9022808AA3B2E140130A836F5
:101DAC00A70C890BD52E0130AC02031DDE2EDF2EC5
:101DBC00C02E2D080319E32EE42EE92EAE09AF092F
:101DCC00AE0A0319AF0A2F08A8002E08A7000800B6
:101DDC00F3007A307306031DF42EF52E092F200024
:101DEC00E0010130F1007108E1000130F1007108EF
:101DFC00E200E90101308C3151248E31FB308C3101
:101E0C003D248E31FF2F72307306031D0E2F0F2FC2
:101E1C001E2F2000E0010130F1007108E2000130BA
:101E2C00F1007108E10001308C3151248E31FF2F0B
:101E3C00FC307306031D232F242F2F2F0630F100A7
:101E4C0071082000E2000130F1007108E100E001AE
:101E5C00FF2FFD307306031D342F352F402F073015
:101E6C00F10071082000E2000130F1007108E1007E
:101E7C00E001FF2F200069080319452F462FD12FB1
:101E8C00A930730603194B2F4C2FD12F7308F10077
:101E9C00680886008701710881000130F100710823
:101EAC00E807FF2F6908031D5C2F5D2F662F01309B
:101EBC00F1007108E9006330F1007108E800FF2FB0
:101ECC00E9010230F1007108E200FF2FEA01FF2F57
:101EDC000D30F100FC30890B712FF10B712F01309B
:101EEC00F10071082000E1000430F1007108E200FB
:101EFC000130F1007108EA00FF2F0D30F100FC30C9
:101F0C00890B862FF10B862F0130F1007108200010
:101F1C00E1000530F1007108E2000130F1007108B8
:101F2C00EA00FF2F0330F1007108E2000130F100EC
:101F3C007108E100E001FF2F0130F1007108E100B0
:101F4C000930F1007108E200FF2F0130F100710837
:101F5C00E1000A30F1007108E200FF2F0130F100BE
:101F6C007108E1000B30F1007108E200FF2F7308DB
:101F7C00F1007108E0000830F1007108E200013056
:101F8C00F1007108E1000D30F100FC30890BCC2F11
:101F9C00F10BCC2FFF2F7308F100F2017208003AFD
:101FAC000319D92FBD2F7108413A0319FF2F243A79
:101FBC0003196C2F033A03196E2F013A0319832F5F
:101FCC000F3A0319982F013A0319A22F033A031958
:101FDC006C2F013A0319FF2FC23A0319582F4F3AAD
:101FEC000319AB2F013A0319B42F093A0319FF2F28
:041FFC00BD2F0800ED
:020000040001F9
:08000000FF3FFF3FFF3FFF3F00
:04000E00E43FFF1FAD
:00000001FF
